:020000020000FC
:1000000007E304B908E307B90EE30AB903E0009374
:100010007F0006ED00937A0000E000937C0003E08F
:1000200000937E0001E007BD05BD03E00093890059
:1000300000E0009388003324B2E0A0E000E00093E9
:10004000C5000DE40093C4000EE00093C20008E177
:100050000093C10001EB0093000102E00093010155
:1000600001E00093060178E07093020170E378B933
:100070000CE10093050100E0BDD005BD1AE01D9321
:1000800013E41D9314E41D9311E41D9388D060B70D
:1000900065FF1D9384D0BAD308D34CD385C2009199
:1000A000C00007FF08950091C600013419F40F91B4
:1000B0000F9163C2043419F40F910F9182C20C3472
:1000C00031F40F910F910AE100930501E9C2023466
:1000D00019F40F910F915CC20B3431F40F910F9111
:1000E00070E270930201D8C2093419F40F910F9194
:1000F00033C20A3541F47CD00091C00007FFFBCF2A
:100100000091C6000895033419F40F910F914CC269
:100110000D3459F40091000110910101000F111FDD
:1001200000930001109301010895063461F401EB7E
:100130000093000102E00093010100910501039585
:10014000009305010895073419F40F910F916EC2C1
:10015000053419F40F910F9143C2102F087F00331B
:1001600031F41770110F110F110F109302010035A8
:1001700019F41770109306010895AA2341F0009115
:10018000C00005FB46F40E910093C60008950000E0
:100190000000000000000000000000000895EDDFF6
:1001A000AA23E9F7089500917800109179001D9332
:1001B0000D93089506ED00937A0000917A00007483
:1001C000E1F7F1CF00917A000074E1F70895069508
:1001D00000F0069518F40000000000000A95E9F709
:1001E0000895000000000A95F1F70895000000004E
:1001F000000008951F93102F0027F5DF1A95E9F7E7
:100200001F91089501E006BB04E000937B0006EB1C
:1002100000937A0003E000937B0000E2E4DF06ED48
:1002200000937A0000910501D2DF0895CC24DD24EB
:10023000AA24BB24E0910001F091010100E00093A9
:100240008100009385000093840002E006BB0895BE
:1002500065FF14E11BB9002713FB00F9C00ED31C86
:100260008CCF0BB9C3DF00001BB9002713FB00F9CB
:10027000C00ED31C82DF0895C5DFD8DF14E11BB99F
:10028000EE0FFF1F0000000060B70000000000003C
:10029000000065FD1CE0DEDF08E2A5DF1CE01BB905
:1002A00000000000000000000000000060B731976F
:1002B000000014E11BB949F708951BB9EE0FFF1FA9
:1002C0000000000060B765FD1CE0C4DF0AE289DFC2
:1002D0001CE01BB90000000060B73197000014E17A
:1002E0001BB989F708951BB9000000000000000049
:1002F00060B7000000000000000065FD1CE0AADF00
:1003000002E671DF1CE01BB90000000000000000E5
:100310000000000060B73197000014E11BB949F7F5
:1003200008951BB9EE0FFF1FEE0FFF1F60B765FDAD
:100330001CE090DF0DE055DF1CE01BB90000000061
:1003400060B73197000014E11BB989F708951BB914
:10035000000000000000000060B74ADF65FD1CE0FF
:1003600079DF0CE13FDF60B70BE03BDF1CE01BB93E
:100370003DDF65FF14E16EDF0CE134DF60B70BE0B9
:1003800032DF319714E11BB941F7089578CF95CF4B
:1003900034C038DF4BDF14E100910601002309F27D
:1003A0000A95A1F30A9599F30A9589F20A9529F01D
:1003B0000A95E9F10A9561F396CF00E00BB90000C8
:1003C00000000000000060B713DF65FD18E042DFA9
:1003D00007E308DF60B701E004DF18E01BB906DFC0
:1003E00065FF10E137DF07E3FDDE60B701E0FBDE0C
:1003F000319710E11BB941F7089504E00BB9EE0FF6
:10040000FF1F0000000060B701E0EBDE1CE01BB93D
:1004100001E0E7DE65FF14E11DDF00E2E3DE60B727
:1004200001E0E1DE14E11BB9319771F70895012F66
:100430001BB960B765FD04E000000000000000008B
:100440000000000065FD1CE00CDF0EE1CADE01E0EB
:10045000C9DE1C701BB90000000000000000000095
:1004600000001CE0012F60B765FF04E01BB900002D
:100470000000000000000000000065FF14E1F1DE54
:100480000EE1AFDE01E0AEDE14711BB9000000002A
:1004900000000000319714E1012F60B765FD04E012
:1004A0001BB961F6089510E11BB918E001E0009353
:1004B000810060B765FFFDCF1BB94090840050906C
:1004C000850018E160B765FDFDCF1BB96090840021
:1004D0007090850010E00000000060B765FFFDCF60
:1004E0001BB9809084009090850006B301FFFDCF7A
:1004F00005E079DEA0907800B090790006ED0093D9
:100500007A000895042D152D080D191D06191709D7
:100510001D930D93841895089D928D9208953FDE4A
:1005200006E00093890000E00093880032DFBBDF23
:10053000BD92AD9242DE01E000937C0078B900915B
:10054000050158DE37DE00E000937C00DBDFDD9242
:10055000CD920CE348DE089504E00BB967DE1CE0A1
:100560001BB903E040DE60B765FF14E11BB904E18D
:100570003ADE04E10BB993DDF2CF78E3D1DF0EEF81
:100580000D930FEF0D9370910201CADF88DDF5CF57
:1005900070910201C5DF0BEF0D930FEF0D936CDE31
:1005A00082DFC6DF7CDDF4CF78E3BADF0AEF0D939C
:1005B0000FEF0D9370E3B4DF70910201B1DF6FDDD7
:1005C000F3CF70E1ADDF08EF0D930FEF0D9378E3FC
:1005D000A7DF70E3A5DF70910201A2DF60DDF1CF3C
:1005E00070E19EDF0EEF0D930FEF0D9370910201FE
:1005F00097DF55DDF5CF06E00093890000E000931A
:10060000880014DE50DF0CE3EEDD10DE04E00BB9F1
:100610000CEDE9DDC8DD47DF75DFCFDDCBDDCADD01
:100620000FEF0D930D93BBDD3ADDE5CF06E00093B0
:10063000890000E00093880000E108D001EF0D93ED
:100640000FEF0D9308E002D02ADDF0CF0BB900EADE
:10065000CADD00E00BB9A3DDF1DD25DF53DFADDD41
:10066000A9DDA8DDA7DDA6DDA5DDA4DDA3DD08E00D
:10067000C1DDA0DD0CE0BEDD9DDD08ECBBDD08ECDE
:10068000B9DDDCDD10DF3EDF98DD08ECB3DD92DDA7
:1006900008ECB0DD8FDD089508D0B8D000DDFCCFC8
:1006A00004D003D047D0FBDCFBCF0CE000938900E3
:1006B00006E90093880005E00BD009E109D005E0C8
:1006C00007D009E105D005E003D009E101D0089584
:1006D000302FACDDE8DE71DDA9DD20E8AFDD01E023
:1006E0000093810018E01BB9032F7DDD18E11BB9D1
:1006F000609084007090850010E060B765FFFDCFCA
:100700001BB9809084009090850086189708C80CCB
:10071000D91CA31C06B301FFFDCF2A95F9F64ADDCB
:100720003D93AD92DD92CD920DEF0D930FEF0D93B2
:1007300036DD089504E00093890004EE00938800FC
:1007400003E0C6DF0D2D18E100FF10E0F12E069545
:100750000350E02E0D93DD9269DDA5DE67DD28E70D
:100760004427552704E0902E2DDD68DD01E000933D
:10077000810018E01BB903E036DD18E11BB90E2D2E
:1007800000000A95E9F74090780050907900052D17
:10079000023048F0000000000000000000000000EF
:1007A00000000000000010E0FBB800001BB9092D9C
:1007B000043061F084189508023020F0C80CD91C70
:1007C000439504C0A80CB91C53950000842C952CAB
:1007D00000E509DD06ED00937A004D925D9206B3C7
:1007E00001FFFDCF2A9509F6BD92AD92DD92CD9223
:1007F0005D934D930CEF0D930FEF0D93D0DC16DD51
:1008000052DE80DECCDCCFDCCADC089504E000934D
:10081000890000E00093880003E05ADF0D2D069563
:100820000250402F2CE3332701DD08DD3CDECADC1B
:1008300000917800C00E00917900D01EFFDC18E016
:100840001BB903E0D0DC01E00093810018E11BB983
:10085000042F00000A95E9F710E01BB906B301FF69
:10086000FDCF06ED00937A00ADDC00917800109189
:10087000790063E00431130520F0003F160708F407
:100880003395A00EB11E2A9581F68DDCBD92AD92F6
:10089000DD92CD924D933D9309EF0D930FEF0D93A4
:1008A0007EDC0B2D0A3018F0439509F0BBCF08957C
:1008B000BDDCF9DD08E010E00BB91BB908EF0D93C2
:1008C0000FEF0D936CDC04E6D02E06ED00937A005A
:1008D00079DC0091780010917900003021F4CA94FD
:1008E000A1F7DA9491F7CC2465DC59DC63DC57DCA2
:1008F000CA94D1F708951BB9EE0FFF1FEE0FFF1F2B
:1009000060B70000000065FD1CE0A4DC60B70DE0EE
:1009100068DC1CE01BB9000000000000000065FF5F
:1009200014E198DC60B70DE05EDC319714E11BB98F
:0409300041F70895EE
:00000001FF
